:100000000C94B7000C94D4000C94D4000C94D4003D
:100010000C94D4000C94D4000C94D4000C94D40010
:100020000C94D4000C94D4000C94D4000C94D40000
:100030000C94D4000C94D4000C94D4000C94D400F0
:100040000C94D4000C94D4000C94D4000C94D400E0
:100050000C94D4000C94D4000C94D4000C94D400D0
:100060000C94D4000C94D4006364696E6F70737543
:1000700078585B0000407A10F35A00A0724E1809BD
:100080000010A5D4E80000E87648170000E40B54FF
:10009000020000CA9A3B000000E1F50500008096CE
:1000A0009800000040420F000000A0860100000000
:1000B000102700000000E8030000000064000000BA
:1000C00000000A00000000000100000000002C7683
:1000D000D888DC674F0823DFC1DFAE59E1B1B7969E
:1000E000E5E3E453C63AE651997696E8E6C28426FB
:1000F000EB898C9B62ED407C6FFCEFBC9C9F40F2D7
:10010000BAA56FA5F490055A2AF75C936B6CF96752
:100110006DC11BFCE0E40D47FEF520E6B500D0ED17
:10012000902E0300943577050080841E080000207F
:100130004E0A000000C80C333333330F986E12831D
:100140001141EF8D2114893BE65516CFFEE6DB18F1
:10015000D1844B381BF77C1D901DA4BBE4242032B6
:1001600084725E228100C9F124ECA1E53D271124AF
:100170001FBECFEFD8E0DEBFCDBF11E0A0E0B1E001
:10018000ECE5F4E202C005900D92A83AB107D9F768
:1001900021E0A8EAB1E001C01D92AC3BB207E1F753
:1001A0000E94B4050C942C120C9400008091C000A5
:1001B00087FFFCCF8091C00085FFFCCF8091C600F7
:1001C00090E00895CF93C82F8A3019F48DE00E94F3
:1001D000E2008091C00085FFFCCFC093C60080E0A4
:1001E00090E0CF910895EF92FF920F931F93CF93DA
:1001F000DF937C01DA01F90182E291E0E701998362
:1002000088838BE291E0EB019983888387E391E017
:1002100011969C938E9383E491E013969C938E9316
:100220001297E7011A821B821C821D82EB011E823B
:100230001F821886198614961D921D921D921C927B
:10024000179718961D921D921D921C921B9784E081
:10025000E7018F8383E08E83EB011A8686E01C968C
:100260008C93F182E0827383628355834483118689
:10027000108617821682C4E0D0E0D387C28784E05C
:1002800090E00E94BD07F80191838083D583C483E9
:1002900013821282DF91CF911F910F91FF90EF9007
:1002A0000895FC0180819181FC0101900020E9F713
:1002B000AF01481B590B60E070E00E94AD09E0916E
:1002C000AC01F091AD01138212820895CF93DF93B8
:1002D000EC018C819D812A813B81620F731F8617FF
:1002E00097077CF4BC01660F771F888199810E9473
:1002F000DE08998388838C819D81880F991F9D8357
:100300008C83DF91CF910895CF92DF92EF92FF928D
:100310000F931F93CF93DF936C01EB01FC010190CE
:100320000020E9F731978F01081B190B780182E053
:10033000E80EF11CB701CE010E94660128813981C7
:100340008A819B81A801B601820F931F0E94A40994
:10035000EA81FB810E0F1F1FE881F981E00FF11F79
:1003600080E290E2918380838A819B81E80EF91E6E
:10037000FB82EA82DF91CF911F910F91FF90EF9066
:10038000DF90CF9008958F929F92AF92BF92CF92BD
:10039000DF92EF92FF920F931F93CF93DF93CDB72E
:1003A000DEB728970FB6F894DEBF0FBECDBF5A0157
:1003B00079019E012F5F3F4F4901890122E044E00E
:1003C0000E949D07D4010D900020E9F711978D013F
:1003D00008191909680135E0C30ED11CB601C7011F
:1003E0000E946601F7012081318182819381A801F9
:1003F000B401820F931F0E94A409F701A081B1816B
:1004000082819381F3E0AF16B104E1F020F4AA9465
:10041000AB28C1F038C0E4E0AE16B10409F1F5E054
:10042000AF16B10481F59801280F391FA20FB31F31
:1004300083E0E7E5F1E001900D928A95E1F70D5F29
:100440001F4F2AC0800F911FA80FB91F84E0ECE452
:10045000F1E001900D928A95E1F70C5F1F4F1CC0EF
:10046000080F191FA00FB11F85E0E1E5F1E0019031
:100470000D928A95E1F7F70182819381C80ED91E0A
:10048000D382C28210C09801280F391FA20FB31F58
:100490008AE08C930F5F1F4FF701A281B3810A0F8F
:1004A0001B1F1383028328960FB6F894DEBF0FBE7E
:1004B000CDBFDF91CF911F910F91FF90EF90DF9013
:1004C000CF90BF90AF909F908F900895AF92BF92C2
:1004D000CF92DF92EF92FF920F931F93CF93DF9310
:1004E000EC018B01AA24A394B12C92E0C92ED12C4B
:1004F00023E0E22EF12C8A859B858230910551F113
:10050000A0F4019709F065C0E881F981B801808104
:1005100091810E948401E881F981628173818481E3
:100520009581980141E050E025C08330910571F13B
:10053000049709F04EC0BB86AA86B801CE010E947E
:100540006602DB86CA86B801CE010E946602FB867F
:10055000EA86D1CFEA81FB81B801808191810E9436
:100560008401EA81FB81668177818085918598018C
:1005700043E050E0DF91CF911F910F91FF90EF90FA
:10058000DF90CF90BF90AF900C94C301EC81FD81C0
:10059000B801808191810E948401EC81FD81648198
:1005A000758186819781980144E050E00E94C301E3
:1005B000EC81FD81B801828193810E948401EC81EC
:1005C000FD816085718582859385980145E050E0C5
:1005D000D1CF8BE591E0DF91CF911F910F91FF90EB
:1005E000EF90DF90CF90BF90AF900C94D109109214
:1005F000C50080E18093C400E0ECF0E0808182607F
:100600008083E1ECF0E08081806880838081886174
:100610008083E2ECF0E080818E608083089544B1B5
:10062000E091AA01F091AB0181E090E09C0106808D
:1006300002C0220F331F0A94E2F7242B24B924B1FD
:10064000E091AA01F091AB01078002C0880F991FC9
:100650000A94E2F78095822384B9089535B1E09138
:10066000AA01F091AB0181E090E0AC01068002C0EC
:10067000440F551F0A94E2F7242F2095232325B910
:100680002AE12A95F1F700C045B1E091AA01F09165
:10069000AB019C01068002C0220F331F0A94E2F7CF
:1006A000242B25B925E32A95F1F7000025B1E09127
:1006B000AA01F091AB01068002C0880F991F0A942D
:1006C000E2F78095822385B90895E091AA01F0911F
:1006D000AB0121E030E0078002C0220F331F0A94F3
:1006E000E2F7422F811101C020E080E090E033B1B9
:1006F000342323130DC00196FC0131976E177F0739
:10070000B1F719C00196FC013197E617F70799F088
:1007100033B134232313F6CF681B790B80E090E0CC
:1007200033B13423231305C08617970721F00196B0
:10073000F7CF0196089580E090E00895CF93DF937E
:100740000E942E0360E177E281E00E946503C09180
:10075000AA01D091AB0197FD0196BC0175956795F3
:10076000072E000C880B990B0E9411072DEC3CEC16
:1007700048EE51E40E949D066A837B838C839D83AF
:100780002FEF89E698E1215080409040E1F700C0CA
:100790000000DF91CF91089510927C0010927A00B2
:1007A00010927B0080917C008F6480937C0080910C
:1007B0007A00876C80937A0080917A0086FDFCCF66
:1007C000089537B1E091A801F091A90181E090E08E
:1007D000AC01028402C0440F551F0A94E2F7242F93
:1007E0002095232327B938B1E091A801F091A90100
:1007F000AC01028402C0440F551F0A94E2F7242F73
:100800002095232328B9EEE7F0E02081A091A801EC
:10081000B091A9011A960C9002C0880F991F0A94F2
:10082000E2F7822B8083089580917C00E091A801FB
:10083000F091A90192859F70807F892B80937C0025
:1008400080917A00806480937A0080917A0086FD9E
:10085000FCCF809178002091790090E0922B089550
:100860000E9414048931910540F4E091A801F091AF
:10087000A90116821782108611869C01295131091F
:100880002936310560F4E091A801F091A90140E01A
:1008900050E060E87EE346835783608771879C0160
:1008A000225831092238310560F4E091A801F09115
:1008B000A90140E050E060E47FE34683578360870E
:1008C00071879C01245031402C33310560F4E09154
:1008D000A801F091A90140E050E060EC7FE346837D
:1008E0005783608771879C0120543140263431053D
:1008F00060F4E091A801F091A90140E050E060E2CD
:1009000070E446835783608771879C012658314085
:100910002634310548F4E091A801F091A90180E066
:1009200090E0A0E6B0E40BC08C3C914060F0E09118
:10093000A801F091A90180E090E0A0E9B0E48683ED
:100940009783A087B1878FEF99E628E18150904087
:100950002040E1F700C0000008954AB1E091AE01E7
:10096000F091AF0181E090E09C01048402C0220F6D
:10097000331F0A94E2F7242B2AB93BB1E091AE0170
:10098000F091AF01AC01048402C0440F551F0A94DA
:10099000E2F7242F209523232BB92FEF39EF40E0E6
:1009A000215030404040E1F700C000002BB1E09101
:1009B000AE01F091AF01048402C0880F991F0A9420
:1009C000E2F7822B8BB90895E091AE01F091AF016F
:1009D00081E090E0048402C0880F991F0A94E2F736
:1009E000982F2AB1809582238AB989B18923E9F7A2
:1009F00089B18923E9F389B18923E9F70895E09161
:100A0000AE01F091AF0181E090E0048402C0880F54
:100A1000991F0A94E2F728E030E060E099B198234A
:100A2000E9F390EA9A95F1F799B19823660F91113D
:100A3000616099B19823E9F72150310979F770E0A5
:100A400080E090E00E940F0708958F929F92AF92EE
:100A5000BF92CF92DF92EF92FF920E94AD040E946C
:100A6000E4040E94FF046B017C010E94FF0420E06B
:100A700030E048EC52E40E949D06A70196010E94D6
:100A800031066B017C010E94FF044B015C010E9456
:100A9000FF0420E030E048EC52E40E949D06A501EE
:100AA00094010E9431064B015C010E94FF04E09119
:100AB000AE01F091AF0184829582A682B782C08692
:100AC000D186E286F3862FEF89E698E121508040B7
:100AD0009040E1F700C00000FF90EF90DF90CF90D2
:100AE000BF90AF909F908F9008950E940F030E9437
:100AF000CC030C94E10320E030E0281739074CF4D4
:100B0000EFE9FFE03197F1F700C000002F5F3F4FA2
:100B1000F4CF0895F8948091AC019091AD010E94BA
:100B200051018091B0019091B10124E030E0FC01CD
:100B3000338722876091AC017091AD010E946602FB
:100B4000E091AC01F091AD0181818F9380818F9311
:100B500082E791E09F938F930E94B40978940F905D
:100B60000F900F900F900895CF93DF931F92CDB702
:100B7000DEB788E090E00E94BD079093AB018093C0
:100B8000AA018BE090E00E94BD079093A901809399
:100B9000A8018DE090E00E94BD079093AF01809383
:100BA000AE018CE090E00E94BD079093B10180936C
:100BB000B00186E090E00E94BD079093AD01809364
:100BC000AC010E94F7028EE091E09093B90180930E
:100BD000B80180E091E09093B7018093B6010E9444
:100BE00075050091AC011091AD012091B0013091DB
:100BF000B1014091AE015091AF016091A801709197
:100C0000A9018091AA019091AB010E94F30085E7B0
:100C100091E00E94D109CE0101969F938F9384EABF
:100C200091E09F938F930E94010A498128EE33E05F
:100C300042038001439F100D112478940F900F9070
:100C40000F900F908BE590E00E94CA090E948A05E0
:100C50008DE590E00E94CA09C8010E947B05F2CF91
:100C60005058BB27AA270E9448060C9463070E948D
:100C7000550738F00E945C0720F039F49F3F19F4C3
:100C800026F40C9452070EF4E095E7FB0C944C0705
:100C9000E92F0E94740758F3BA1762077307840795
:100CA000950720F079F4A6F50C9496070EF4E095DC
:100CB0000B2EBA2FA02D0B01B90190010C01CA0116
:100CC000A0011124FF27591B99F0593F50F4503EC1
:100CD00068F11A16F040A22F232F342F4427585FB3
:100CE000F3CF469537952795A795F0405395C9F7CB
:100CF0007EF41F16BA0B620B730B840BBAF0915083
:100D0000A1F0FF0FBB1F661F771F881FC2F70EC021
:100D1000BA0F621F731F841F48F4879577956795F4
:100D2000B795F7959E3F08F0B0CF9395880F08F0E0
:100D30009927EE0F9795879508950E94B1060C9418
:100D400063070E945C0758F00E94550740F029F4A1
:100D50005F3F29F00C944C0751110C9497070C94A9
:100D600052070E94740768F39923B1F3552391F356
:100D7000951B550BBB27AA2762177307840738F00A
:100D80009F5F5F4F220F331F441FAA1FA9F335D067
:100D90000E2E3AF0E0E832D091505040E695001C1B
:100DA000CAF72BD0FE2F29D0660F771F881FBB1FD5
:100DB000261737074807AB07B0E809F0BB0B802DB3
:100DC000BF01FF2793585F4F3AF09E3F510578F0DF
:100DD0000C944C070C9497075F3FE4F3983ED4F3D0
:100DE000869577956795B795F7959F5FC9F7880FB3
:100DF000911D9695879597F90895E1E0660F771F05
:100E0000881FBB1F621773078407BA0720F0621B95
:100E1000730B840BBA0BEE1F88F7E0950895E894E6
:100E200009C097FB3EF490958095709561957F4F32
:100E30008F4F9F4F9923A9F0F92F96E9BB279395E0
:100E4000F695879577956795B795F111F8CFFAF4F0
:100E5000BB0F11F460FF1BC06F5F7F4F8F4F9F4F21
:100E600016C0882311F096E911C0772321F09EE87F
:100E7000872F762F05C0662371F096E8862F70E0E5
:100E800060E02AF09A95660F771F881FDAF7880FBF
:100E90009695879597F9089597F99F6780E870E090
:100EA00060E008959FEF80EC089500240A941616E0
:100EB000170618060906089500240A941216130648
:100EC000140605060895092E0394000C11F48823D6
:100ED00052F0BB0F40F4BF2B11F460FF04C06F5FF2
:100EE0007F4F8F4F9F4F089557FD9058440F551FC8
:100EF00059F05F3F71F04795880F97FB991F61F09C
:100F00009F3F79F087950895121613061406551F12
:100F1000F2CF4695F1DF08C0161617061806991F7E
:100F2000F1CF86957105610508940895E894BB2773
:100F300066277727CB0197F90895EF920F931F93B8
:100F4000CF93DF93E80147FD02C034E001C034E1F4
:100F5000042E000C550B57FF03C0519541955109C4
:100F6000E32E022F242FAE010E94A50ECE01DF91A9
:100F7000CF911F910F91EF9008950F931F93CF93EF
:100F8000DF938230910510F482E090E0E091B401AB
:100F9000F091B50120E030E0A0E0B0E0309719F129
:100FA000408151810281138148175907C8F0841785
:100FB000950769F4109731F012960C9312971396D7
:100FC0001C9327C00093B4011093B50122C02115D2
:100FD000310519F04217530718F49A01BD01EF01CA
:100FE000DF01F801DBCF21153105F9F0281B390BA2
:100FF0002430310580F48A819B816115710521F0CF
:10100000FB019383828304C09093B5018093B40164
:10101000FE01329644C0FE01E20FF31F81939193CB
:1010200022503109398328833AC02091B20130918E
:10103000B301232B41F420911E0130911F01309305
:10104000B3012093B20120911C0130911D012115A3
:10105000310541F42DB73EB7409120015091210157
:10106000241B350BE091B201F091B301E217F307B5
:10107000A0F42E1B3F0B2817390778F0AC014E5F08
:101080005F4F2417350748F04E0F5F1F5093B30191
:101090004093B2018193919302C0E0E0F0E0CF0170
:1010A000DF91CF911F910F910895CF93DF93009718
:1010B00009F481C0FC01329713821282A091B4011D
:1010C000B091B501109781F420813181820F931F77
:1010D0002091B2013091B3012817390751F5F093EF
:1010E000B301E093B20167C0ED0120E030E0CE171C
:1010F000DF0740F44A815B819E0141155105F1F003
:10110000EA01F5CFD383C28340815181840F951FBB
:10111000C817D90759F488819981840F951F0296C1
:10112000918380838A819B819383828321153105FA
:1011300029F4F093B501E093B4013DC0E901FB83CC
:10114000EA8349915991C40FD51FEC17FD0761F44B
:1011500080819181840F951F0296E901998388838C
:10116000828193819B838A83E0E0F0E012968D91E7
:101170009C911397009719F0FD01DC01F7CF8D9139
:101180009C9111979D012E5F3F4F820F931F2091DD
:10119000B2013091B3012817390769F4309729F467
:1011A0001092B5011092B40102C013821282B09362
:1011B000B301A093B201DF91CF910895A0E0B0E018
:1011C000E4EEF8E00C94F911EC01009721F4CB0166
:1011D0000E94BD07B4C0FC01E60FF71F9C0122501E
:1011E0003109E217F30708F4A8C0D9010D911C9149
:1011F000119706171707B0F00530110508F49BC0CA
:10120000C80104978617970708F495C00250110982
:10121000061B170B019311936D937C93CF010E94D2
:10122000550889C05B01A01AB10A4C01800E911EBD
:10123000A091B401B091B501612C712CE12CF12C7D
:10124000109709F446C08D919C911197A815B90586
:10125000B1F56C0142E0C40ED11CCA14DB0478F174
:101260004C018A189B08640142E0C40ED11C1296FE
:10127000BC9012971396AC91B5E0CB16D10440F018
:10128000B282A38391828082D9016D937C9309C03D
:101290000E5F1F4F800F911FF90191838083EB2D0B
:1012A000FA2FE114F10431F0D7011396FC93EE9379
:1012B000129741C0F093B501E093B4013CC06816A9
:1012C000790608F43C017D0112960D90BC91A02D89
:1012D000B7CF8091B2019091B30188169906E1F4DD
:1012E00066167706C8F480911C0190911D01009745
:1012F00041F48DB79EB74091200150912101841B8C
:10130000950BE817F907C8F4F093B301E093B20125
:10131000F901718360830FC0CB010E94BD077C017E
:10132000009759F0A801BE010E94A409CE010E94B5
:101330005508C70104C0CE0102C080E090E0CDB7DF
:10134000DEB7EEE00C941512FB01DC0102C0019047
:101350000D9241505040D8F70895DC0101C06D93C3
:1013600041505040E0F70895A0E0B0E0EAEBF9E02A
:101370000C940512AE014B5F5F4FFA0161917191C0
:10138000AF018091B8019091B9010E94170AE2E083
:101390000C9421126091B8017091B9010E943F1123
:1013A00008950F931F93CF93DF93E091B801F091CD
:1013B000B901238121FF1BC08C01D0E0C0E0F801FE
:1013C00081918F016091B8017091B901DB0118968C
:1013D000ED91FC911997882331F00995892B79F3C8
:1013E000DFEFCFEFECCF8AE00995892B19F08FEF73
:1013F0009FEF02C08D2F9C2FDF91CF911F910F91F6
:101400000895A0E0B0E0E7E0FAE00C940512AE0128
:101410004B5F5F4FFA0161917191AF018091B6010D
:101420009091B7010E94940DE2E00C942112ABE080
:10143000B0E0EDE1FAE00C94F5116C017B018A015A
:10144000FC0117821682838181FFCCC1CE010196F7
:101450003C01F6019381F70193FD859193FF819102
:101460007F01882309F4BAC1853239F493FD85914F
:1014700093FF81917F01853229F4B60190E00E94AB
:101480003F11E7CF912C212C312CFFE1F315D8F03F
:101490008B3279F038F4803279F08332A1F4232D45
:1014A00020611DC08D3261F0803369F4232D2160ED
:1014B00016C0832D8260382EE32DE4603E2E2AC0B4
:1014C000F32DF8601DC037FC2DC020ED280F2A3009
:1014D00040F08E32B9F436FC81C1232D2064322EC7
:1014E00019C036FE06C08AE0989E200D1124922E67
:1014F00011C0EAE02E9E200D1124222EF32DF06261
:101500003F2E08C08C3621F4832D8068382E02C00F
:10151000883641F4F70193FD859193FF81917F0116
:101520008111B3CF982F9F7D9554933028F40C5F91
:101530001F4F9FE399830DC0833631F0833771F0DD
:10154000833509F059C021C0F801808189830E5F7D
:101550001F4F88248394912C530113C02801F2E07B
:101560004F0E511CF801A080B18036FE03C0692DDA
:1015700070E002C06FEF7FEFC5010E94F6104C01D2
:101580008201F32DFF773F2E16C0280122E0420E84
:10159000511CF801A080B18036FE03C0692D70E0B7
:1015A00002C06FEF7FEFC5010E94EB104C01F32DDD
:1015B000F0683F2E820133FC1BC0822D90E088161C
:1015C0009906B0F4B60180E290E00E943F112A949F
:1015D000F4CFF50137FC859137FE81915F01B601AB
:1015E00090E00E943F1121102A9421E0821A910874
:1015F0008114910471F7E8C0843611F0893641F501
:10160000F80137FE07C060817181828193810C5F90
:101610001F4F08C060817181072E000C880B990B49
:101620000E5F1F4FF32DFF763F2E97FF09C0909559
:101630008095709561957F4F8F4F9F4FF0683F2E3B
:101640002AE030E0A3010E949411882E861845C03C
:10165000853731F4232D2F7EB22E2AE030E025C0CD
:10166000932D997FB92E8F36C1F018F4883579F013
:10167000B5C0803719F0883721F0B0C0E92FE0619C
:10168000BE2EB4FE0DC0FB2DF460BF2E09C034FE8B
:101690000AC0292F2660B22E06C028E030E005C01F
:1016A00020E130E002C020E132E0F801B7FE07C0DF
:1016B00060817181828193810C5F1F4F06C06081C0
:1016C000718180E090E00E5F1F4FA3010E94941192
:1016D000882E8618FB2DFF773F2E36FE0DC0232D5A
:1016E0002E7FA22E891458F434FE0BC032FC09C0A0
:1016F000832D8E7EA82E05C0B82CA32C03C0B82C39
:1017000001C0B92CA4FE0FC0FE01E80DF11D8081BF
:10171000803321F49A2D997EA92E09C0A2FE06C01D
:10172000B394B39404C08A2D867809F0B394A3FCD3
:1017300011C0A0FE06C0B21488F4280C922C9B188D
:101740000EC0B21460F4B60180E290E00E943F1136
:10175000B394F7CFB21418F42B1802C0982C212C94
:10176000A4FE10C0B60180E390E00E943F11A2FEEB
:1017700017C0A1FC03C088E790E002C088E590E0B4
:10178000B6010CC08A2D867859F0A1FE02C08BE20A
:1017900001C080E2A7FC8DE2B60190E00E943F11FB
:1017A000891438F4B60180E390E00E943F119A94C6
:1017B000F7CF8A94F301E80DF11D8081B60190E026
:1017C0000E943F118110F5CF222009F442CEB601CC
:1017D00080E290E00E943F112A94F6CFF6018681C4
:1017E000978102C08FEF9FEF2B96E2E10C941112CC
:1017F00020FD09C0FC0123FD05C022FF02C0738348
:10180000628351834083089544FD17C046FD17C08D
:10181000AB01BC01DA01FB01AA0FBB1FEE1FFF1FCA
:101820001094D1F74A0F5B1F6E1F7F1FCB01BA01C7
:10183000660F771F881F991F09C033E001C034E08D
:10184000660F771F881F991F3150D1F7620F711DE6
:10185000811D911D08950F931F93CF93DF938C01EA
:10186000C8010E940111EC0197FD08C00E94D71029
:10187000892BB1F7B801CE010E947B11CE01DF9117
:10188000CF911F910F9108958F929F92AF92BF9227
:10189000EF92FF920F931F93CF93DF938C01D62F7C
:1018A0007A01B22E0E9401119C0133272B3231059F
:1018B00031F02D32310561F48B2D8068B82ED15076
:1018C00011F480E068C0C8010E94011197FDF9CFB2
:1018D000CB2DCD7F2B2D207309F58033F9F4AA246D
:1018E000AA94AD0E09F443C0C8010E94011197FDEE
:1018F0003EC09C012F7D33272835310549F4C26451
:10190000D250A9F1C8010E94011197FF07C02FC052
:10191000B6FE02C0C26001C0C261DA2D812C912CDA
:10192000540120ED280F283080F0C4FF04C0B80116
:101930000E947B1119C02A3040F0C6FFF8CF2F7DDE
:101940003FEE320F363098F727504C2FC501B401C7
:101950000E94040C4B015C01C260D15059F0C801D7
:101960000E94011197FFDDCFC1FD04C0AACF812CD9
:10197000912C5401C7FF08C0B094A0949094809417
:10198000811C911CA11CB11C2C2FB501A401C70105
:101990000E94F80B81E0DF91CF911F910F91FF9092
:1019A000EF90BF90AF909F908F900895A0E2B0E02D
:1019B000ECEDFCE00C94F8115C01962E7A01F90133
:1019C0008E010F5F1F4F680180E2D8011D928A953A
:1019D000E9F7D50113968C9080E090E0612C712C92
:1019E00030E061E070E083FC259183FE21918F015E
:1019F000522E211103C080E090E092C02E3511F4E8
:101A0000009751F1432F50E0481759073CF42D350A
:101A100059F12D3219F4772009F103C0772009F428
:101A20006AC0452D469546954695D601A40FB11D31
:101A3000452D47708B0102C0000F111F4A95E2F738
:101A4000A8015C91452B4C93651459F0561410F481
:101A50005394E7CF5A94E5CF31E004C077247394D0
:101A600001C0712C0196BFCF772019F08E81806262
:101A70008E83311103C08824839417C0F6019E0120
:101A80002F5D3F4F8081809581932E173F07D1F7BF
:101A9000F2CFE114F10429F0D7018C93F7013196CC
:101AA0007F019A94812C9920F9F0C5010E940111BF
:101AB00097FD18C0FC01FF2723E0F595E7952A95CF
:101AC000E1F7EC0DFD1D208130E0AC01477055279A
:101AD00002C0359527954A95E2F720FDDACFB5018A
:101AE0000E947B11811087CFE114F10411F0D7011E
:101AF0001C92C80115C0422F469546954695D601C1
:101B0000A40FB11D422F47708B0102C0000F111F9F
:101B10004A95E2F7A8015C91452B4C93622EA2CF27
:101B2000A096EFE00C941412A0E0B0E0EAE9FDE02A
:101B30000C94F8116C01EB015A01FC01178216821A
:101B4000512CF601E380FE01E3FC8591E3FE8191D7
:101B5000182FEF01882309F4EEC090E00E94D710FF
:101B6000892B21F0C6010E942B0CEBCF153241F4DA
:101B7000FE01E3FC1591E3FE1191EF01153281F4B2
:101B8000C6010E94011197FDD4C0412F50E09C0175
:101B9000332724173507A9F2B6010E947B11CBC069
:101BA0001A3239F4E3FC1591E3FE1191EF0101E0E3
:101BB00001C000E0F12C20ED210F2A3080F40260FA
:101BC0006F2D70E080E090E040E20E94040CF62E61
:101BD000FE01E3FC1591E3FE1191EF01ECCF01FF53
:101BE00003C0F11003C0A7C0FF24FA94183619F0FF
:101BF0001C3651F010C0FE01E3FC1591E3FE11917B
:101C0000EF01183641F408600460FE01E3FC159111
:101C1000E3FE1191EF01112309F48DC0612F70E0F3
:101C200088E690E00E94E010892B09F484C000FD52
:101C300007C0F50180809180C50102965C0102C059
:101C4000812C912C1E3651F4F6014681578160E0BB
:101C500070E0202FC4010E94F80B73CF1336A9F453
:101C600001FD02C0FF24F394C6010E94011197FDFB
:101C700060C08114910429F0F4018083C4010196AD
:101C80004C01FA94F110F0CF50C01B3559F49E016D
:101C9000A4016F2DC6010E94D60CEC01892B09F01E
:101CA00044C03EC0C6010E942B0C97FD42C01F36A7
:101CB00061F128F4143639F1193651F128C013377F
:101CC00071F0153701F123C08114910429F0F4015A
:101CD0006082C40101964C01FA94FF2071F0C601A4
:101CE0000E9401113C0197FD08C00E94D710892B6A
:101CF00059F3B601C3010E947B1181149104A9F02C
:101D0000F401108212C0006203C0006101C00064CF
:101D1000202FA4016F2DC6010E94440C811105C023
:101D2000F6018381807329F406C000FD0ACF539425
:101D300008CF552019F0852D90E002C08FEF9FEF5E
:101D4000CDB7DEB7EFE00C941412A9E0B0E0EBEAF7
:101D5000FEE00C94FB116A01122FB02E2BE320172A
:101D600020F0FF24F394F00E02C02CE3F22E0F2D8E
:101D700027E0AE014F5F5F4F0E94FF0FBC0149811A
:101D8000842F8970813031F0E1FC06C0E0FE06C08E
:101D900090E205C09DE203C09BE201C090E05E2D91
:101DA000507143FF3CC0911102C083E001C084E048
:101DB000811718F4212F281B01C020E051110BC0FE
:101DC000F601822F30E2882319F031938150FBCF46
:101DD000C20ED11C20E0992329F0D6019C93F60174
:101DE00031966F01C6010396E2FE0AC03EE4D601B9
:101DF0003C9341E411964C93119712963C9306C084
:101E00003EE6F601308341E641833283FC01322F06
:101E100040E2332309F442C041933150FACF42FFEC
:101E200044C0911102C083E001C084E0811718F41E
:101E3000212F281B01C020E051110BC0F601822F79
:101E400030E2882319F031938150FBCFC20ED11CB0
:101E500020E0992329F0D6019C93F60131966F0179
:101E6000C6010396E2FE0BC039E4D6013C933EE482
:101E700011963C93119736E412963C9307C039E6CD
:101E8000F60130833EE6318336E63283FC01322FA1
:101E900040E2332319F041933150FBCFFC01E20FB4
:101EA000F11D10828EEF9FEFA6C021E030E091116E
:101EB00002C020E030E0161617061CF4FB01319634
:101EC00002C0E1E0F0E02E0F3F1FBB2021F0EB2D20
:101ED000F0E0319602C0E0E0F0E02E0F3F1FE12F6E
:101EE000F0E02E173F071CF4121B212F01C020E049
:101EF0008E2D887159F4F601822F30E2882319F073
:101F000031938150FBCFC20ED11C20E0992329F0E0
:101F1000D6019C93F60131966F0151110BC0F60169
:101F2000822F90E3882319F091938150FBCFC20E4A
:101F3000D11C20E00F2D060F9A81342F307144FF01
:101F400003C0913309F40150101624F4093018F03D
:101F500008E001C001E0AB0177FF02C040E050E0C3
:101F6000FB01E41BF50BA1E0B0E0AC0FBD1FEA0FD5
:101F7000FB1F8EE2A82E4B01801A91080B2D10E05A
:101F80001195019511094F3FBFEF5B0721F4D60171
:101F9000AC9211966D01641775072CF084169506A6
:101FA00014F4818101C080E3415051093196D6017A
:101FB00011967D014017510724F0D6018C936701DB
:101FC000E2CF6417750739F4963320F4953319F48A
:101FD000311101C081E3F6018083F701822F90E285
:101FE000882319F091938150FBCFF701E20FF11D87
:101FF000108280E090E02996ECE00C9417122830D3
:1020000008F027E03327DA01990F311D87FD916031
:1020100000966105710539F432602E5F3D9330E31F
:102020002A95E1F708959F3F30F0803871056105EA
:1020300009F03C5F3C5F3D93913008F08068911D52
:10204000DF93CF931F930F93FF92EF92192F987FF7
:102050009695E92F96959695E90FFF27E253FF4F46
:1020600099273327EE24FF24A701E7010590089460
:10207000079428F4360FE71EF81E491F511D660FFE
:10208000771F881F991F0694A1F70590079428F4DD
:10209000E70EF81E491F561FC11D770F881F991F95
:1020A000661F0694A1F70590079428F4F80E491FBF
:1020B000561FC71FD11D880F991F661F771F0694D3
:1020C000A1F70590079420F4490F561FC71FD81F8A
:1020D000990F661F771F881F0694A9F784911095A2
:1020E000177041F0D695C79557954795F794E794A3
:1020F0001A95C1F7E4E7F0E06894159015913591D1
:102100006591959105907FE27395E118F10A430B73
:10211000560BC90BD009C0F7E10CF11E431F561F27
:10212000C91FD01D7EF4703311F48A95E6CFE89470
:10213000015030F0080F0AF40027021708F4202F8E
:102140002395022F7A3328F079E37D932A95E9F7D6
:1021500010C07D932A9589F60694979567953795D3
:1021600017951794E118F10A430B560BC90BD009C8
:1021700098F023957E9173957A3308F070E37C9301
:102180002013B8F77E9170617D9330F0839571E3F1
:102190007D9370E32A95E1F71124EF90FF900F9162
:1021A0001F91CF91DF91992787FD90950895911107
:1021B0000C94F211803219F089508550C8F70895B7
:1021C000FC010590061621F00020D9F7C001089502
:1021D0003197CF010895FC010590615070400110C6
:1021E000D8F7809590958E0F9F1F0895FC01615040
:1021F000704001900110D8F7809590958E0F9F1F29
:102200000895CF93DF93EC012B8120FF33C026FF8D
:102210000AC02F7B2B838E819F8101969F838E83A3
:102220008A8190E029C022FF0FC0E881F981808176
:10223000082E000C990B009719F420622B831AC00A
:102240003196F983E8830EC0EA85FB85099597FFEF
:1022500009C02B81019611F080E201C080E1822B40
:102260008B8308C02E813F812F5F3F4F3F832E839A
:10227000992702C08FEF9FEFDF91CF9108950F93C1
:102280001F93CF93DF93FB01238121FD03C08FEFC9
:102290009FEF2CC022FF16C04681578124813581D3
:1022A0004217530744F4A081B1819D012F5F3F4F36
:1022B000318320838C93268137812F5F3F4F378373
:1022C000268314C08B01EC01FB010084F185E02D15
:1022D0000995892BE1F6D80116968D919C91179757
:1022E000019617969C938E931697CE01DF91CF910E
:1022F0001F910F910895FB01238120FF12C026FD3D
:1023000010C08F3F3FEF930761F082832F7D2064E1
:1023100023832681378121503109378326839927EA
:1023200008958FEF9FEF0895FA01AA27283051F101
:10233000203181F1E8946F936E7F6E5F7F4F8F4FF6
:102340009F4FAF4FB1E03ED0B4E03CD0670F781F55
:10235000891F9A1FA11D680F791F8A1F911DA11D3A
:102360006A0F711D811D911DA11D20D009F4689473
:102370003F912AE0269F11243019305D3193DEF61B
:10238000CF010895462F4770405D4193B3E00FD0D1
:10239000C9F7F6CF462F4F70405D4A3318F0495DBC
:1023A00031FD4052419302D0A9F7EACFB4E0A6959F
:1023B0009795879577956795BA95C9F700976105C1
:1023C000710508959B01AC010A2E06945795479517
:1023D00037952795BA95C9F7620F731F841F951F0C
:1023E000A01D08959927882708952F923F924F9214
:1023F0005F926F927F928F929F92AF92BF92CF9295
:10240000DF92EF92FF920F931F93CF93DF93CDB79D
:10241000DEB7CA1BDB0B0FB6F894DEBF0FBECDBF15
:1024200009942A88398848885F846E847D848C84E6
:102430009B84AA84B984C884DF80EE80FD800C81EF
:102440001B81AA81B981CE0FD11D0FB6F894DEBFD2
:0C2450000FBECDBFED010895F894FFCF42
:10245C0000000001000000000000D6000000000099
:10246C00000200000000E200000000000000BC01BF
:10247C00200044697374616E7A610050726F666FEC
:10248C006E646974C3A00054656D70657261747577
:10249C00726100556D69646974C3A00020636D0A94
:1024AC000020C2B0430A0020250A004F70657261FB
:1024BC007A696F6E65206E6F6E2076616C696461EF
:1024CC002100257300496E73657269726520696C11
:1024DC0020706572696F646F206469206163717527
:1024EC006973697A696F6E652064656920646174CB
:0824FC00693A2000256300008D
:00000001FF
